{"abi":[{"type":"constructor","inputs":[],"stateMutability":"nonpayable"},{"type":"function","name":"activateBooth","inputs":[{"name":"_deviceId","type":"uint256","internalType":"uint256"}],"outputs":[],"stateMutability":"nonpayable"},{"type":"function","name":"addLocationToCampaign","inputs":[{"name":"_campaignId","type":"uint256","internalType":"uint256"},{"name":"_deviceId","type":"uint256","internalType":"uint256"}],"outputs":[],"stateMutability":"nonpayable"},{"type":"function","name":"admin","inputs":[],"outputs":[{"name":"","type":"address","internalType":"address"}],"stateMutability":"view"},{"type":"function","name":"advertiserToCampaigns","inputs":[{"name":"","type":"address","internalType":"address"},{"name":"","type":"uint256","internalType":"uint256"}],"outputs":[{"name":"","type":"uint256","internalType":"uint256"}],"stateMutability":"view"},{"type":"function","name":"allDeviceIds","inputs":[{"name":"","type":"uint256","internalType":"uint256"}],"outputs":[{"name":"","type":"uint256","internalType":"uint256"}],"stateMutability":"view"},{"type":"function","name":"boothCount","inputs":[],"outputs":[{"name":"","type":"uint256","internalType":"uint256"}],"stateMutability":"view"},{"type":"function","name":"booths","inputs":[{"name":"","type":"uint256","internalType":"uint256"}],"outputs":[{"name":"deviceId","type":"uint256","internalType":"uint256"},{"name":"metadata","type":"bytes","internalType":"bytes"},{"name":"owner","type":"address","internalType":"address"},{"name":"active","type":"bool","internalType":"bool"},{"name":"status","type":"uint8","internalType":"enum BoothRegistery.BoothStatus"}],"stateMutability":"view"},{"type":"function","name":"campaignCount","inputs":[],"outputs":[{"name":"","type":"uint256","internalType":"uint256"}],"stateMutability":"view"},{"type":"function","name":"campaigns","inputs":[{"name":"","type":"uint256","internalType":"uint256"}],"outputs":[{"name":"advertiser","type":"address","internalType":"address"},{"name":"metadata","type":"bytes","internalType":"bytes"},{"name":"active","type":"bool","internalType":"bool"}],"stateMutability":"view"},{"type":"function","name":"createCampaign","inputs":[{"name":"_metadata","type":"bytes","internalType":"bytes"},{"name":"_deviceIds","type":"uint256[]","internalType":"uint256[]"}],"outputs":[{"name":"","type":"uint256","internalType":"uint256"}],"stateMutability":"nonpayable"},{"type":"function","name":"deactivateBooth","inputs":[{"name":"_deviceId","type":"uint256","internalType":"uint256"}],"outputs":[],"stateMutability":"nonpayable"},{"type":"function","name":"deviceToCampaigns","inputs":[{"name":"","type":"uint256","internalType":"uint256"},{"name":"","type":"uint256","internalType":"uint256"}],"outputs":[{"name":"","type":"uint256","internalType":"uint256"}],"stateMutability":"view"},{"type":"function","name":"getActiveBooths","inputs":[],"outputs":[{"name":"","type":"uint256[]","internalType":"uint256[]"}],"stateMutability":"view"},{"type":"function","name":"getActiveLocations","inputs":[],"outputs":[{"name":"","type":"uint256[]","internalType":"uint256[]"}],"stateMutability":"view"},{"type":"function","name":"getBoothDetails","inputs":[{"name":"_deviceId","type":"uint256","internalType":"uint256"}],"outputs":[{"name":"deviceId","type":"uint256","internalType":"uint256"},{"name":"metadata","type":"bytes","internalType":"bytes"},{"name":"owner","type":"address","internalType":"address"},{"name":"active","type":"bool","internalType":"bool"},{"name":"status","type":"uint8","internalType":"enum BoothRegistery.BoothStatus"}],"stateMutability":"view"},{"type":"function","name":"getCampaignDetails","inputs":[{"name":"_campaignId","type":"uint256","internalType":"uint256"}],"outputs":[{"name":"advertiser","type":"address","internalType":"address"},{"name":"metadata","type":"bytes","internalType":"bytes"},{"name":"active","type":"bool","internalType":"bool"},{"name":"bookedLocations","type":"uint256[]","internalType":"uint256[]"}],"stateMutability":"view"},{"type":"function","name":"getCampaignLocations","inputs":[{"name":"_campaignId","type":"uint256","internalType":"uint256"}],"outputs":[{"name":"","type":"uint256[]","internalType":"uint256[]"}],"stateMutability":"view"},{"type":"function","name":"getDevicePreviousCampaigns","inputs":[{"name":"_deviceId","type":"uint256","internalType":"uint256"}],"outputs":[{"name":"campaignIds","type":"uint256[]","internalType":"uint256[]"},{"name":"advertisers","type":"address[]","internalType":"address[]"},{"name":"metadata","type":"bytes[]","internalType":"bytes[]"},{"name":"activeStatus","type":"bool[]","internalType":"bool[]"}],"stateMutability":"view"},{"type":"function","name":"getProviderLocations","inputs":[{"name":"_provider","type":"address","internalType":"address"}],"outputs":[{"name":"","type":"uint256[]","internalType":"uint256[]"}],"stateMutability":"view"},{"type":"function","name":"registerBooth","inputs":[{"name":"_deviceId","type":"uint256","internalType":"uint256"},{"name":"metadata","type":"bytes","internalType":"bytes"}],"outputs":[],"stateMutability":"nonpayable"},{"type":"function","name":"removeLocationFromCampaign","inputs":[{"name":"_campaignId","type":"uint256","internalType":"uint256"},{"name":"_deviceId","type":"uint256","internalType":"uint256"}],"outputs":[],"stateMutability":"nonpayable"},{"type":"function","name":"updateBoothStatus","inputs":[{"name":"_deviceId","type":"uint256","internalType":"uint256"},{"name":"_status","type":"uint8","internalType":"enum BoothRegistery.BoothStatus"}],"outputs":[],"stateMutability":"nonpayable"},{"type":"event","name":"BoothActivated","inputs":[{"name":"deviceId","type":"uint256","indexed":false,"internalType":"uint256"}],"anonymous":false},{"type":"event","name":"BoothDeactivated","inputs":[{"name":"deviceId","type":"uint256","indexed":false,"internalType":"uint256"}],"anonymous":false},{"type":"event","name":"BoothRegistered","inputs":[{"name":"deviceId","type":"uint256","indexed":false,"internalType":"uint256"},{"name":"metadata","type":"bytes","indexed":false,"internalType":"bytes"},{"name":"owner","type":"address","indexed":false,"internalType":"address"}],"anonymous":false},{"type":"event","name":"BoothStatusUpdated","inputs":[{"name":"deviceId","type":"uint256","indexed":false,"internalType":"uint256"},{"name":"status","type":"uint8","indexed":false,"internalType":"enum BoothRegistery.BoothStatus"}],"anonymous":false},{"type":"event","name":"CampaignCreated","inputs":[{"name":"campaignId","type":"uint256","indexed":false,"internalType":"uint256"},{"name":"advertiser","type":"address","indexed":false,"internalType":"address"},{"name":"metadata","type":"bytes","indexed":false,"internalType":"bytes"}],"anonymous":false},{"type":"event","name":"CampaignEnded","inputs":[{"name":"campaignId","type":"uint256","indexed":false,"internalType":"uint256"}],"anonymous":false},{"type":"event","name":"LocationAddedToCampaign","inputs":[{"name":"campaignId","type":"uint256","indexed":false,"internalType":"uint256"},{"name":"deviceId","type":"uint256","indexed":false,"internalType":"uint256"}],"anonymous":false},{"type":"event","name":"LocationRemovedFromCampaign","inputs":[{"name":"campaignId","type":"uint256","indexed":false,"internalType":"uint256"},{"name":"deviceId","type":"uint256","indexed":false,"internalType":"uint256"}],"anonymous":false}],"bytecode":{"object":"0x6080604052348015600e575f80fd5b50600280546001600160a01b0319163317905561309f8061002e5f395ff3fe608060405234801561000f575f80fd5b5060043610610179575f3560e01c806394909c55116100d2578063d993de6211610088578063f3d4c0a811610063578063f3d4c0a814610322578063f851a44014610335578063fa26abdf1461037a575f80fd5b8063d993de62146102c8578063e6f18690146102eb578063f314ea781461030f575f80fd5b8063c1677fe7116100b8578063c1677fe71461027f578063c941aa1114610292578063ced3530f146102b5575f80fd5b806394909c5514610263578063adb6f8be1461026c575f80fd5b806336fbb976116101325780637429dbef1161010d5780637429dbef1461022a5780637e41461e1461023d57806387d62e5914610250575f80fd5b806336fbb976146101f85780634884a15b146102005780637274e30d14610213575f80fd5b80632b128b2f116101625780632b128b2f146101bd5780632c7ec382146101d25780632e6dc91a146101e5575f80fd5b8063141961bc1461017d5780631cd249b6146101a8575b5f80fd5b61019061018b36600461273d565b61038d565b60405161019f939291906127a0565b60405180910390f35b6101b061044f565b60405161019f919061281a565b6101d06101cb366004612860565b610650565b005b6101b06101e0366004612982565b61086f565b6101d06101f336600461299b565b61097a565b6101b0610daf565b6101b061020e36600461273d565b610ef9565b61021c60055481565b60405190815260200161019f565b61021c6102383660046129bb565b610f5b565b6101d061024b366004612a83565b611499565b61021c61025e36600461299b565b611667565b61021c60015481565b6101d061027a36600461299b565b611692565b6101d061028d36600461273d565b611afb565b6102a56102a036600461273d565b611cbc565b60405161019f9493929190612ae6565b6101d06102c336600461273d565b6120db565b6102db6102d636600461273d565b612281565b60405161019f9493929190612be6565b6102fe6102f936600461273d565b6123da565b60405161019f959493929190612c9f565b6102fe61031d36600461273d565b6125b1565b61021c61033036600461273d565b6126a8565b6002546103559073ffffffffffffffffffffffffffffffffffffffff1681565b60405173ffffffffffffffffffffffffffffffffffffffff909116815260200161019f565b61021c610388366004612cf4565b6126c7565b60046020525f90815260409020805460018201805473ffffffffffffffffffffffffffffffffffffffff90921692916103c590612d1c565b80601f01602080910402602001604051908101604052809291908181526020018280546103f190612d1c565b801561043c5780601f106104135761010080835404028352916020019161043c565b820191905f5260205f20905b81548152906001019060200180831161041f57829003601f168201915b5050506002909301549192505060ff1683565b60605f805b60035481101561050c575f806003838154811061047357610473612d6d565b905f5260205f20015481526020019081526020015f2060020160149054906101000a900460ff1680156104f157505f8080600384815481106104b7576104b7612d6d565b905f5260205f20015481526020019081526020015f2060020160159054906101000a900460ff1660028111156104ef576104ef612c39565b145b15610504578161050081612dc7565b9250505b600101610454565b505f8167ffffffffffffffff81111561052757610527612833565b604051908082528060200260200182016040528015610550578160200160208202803683370190505b5090505f805b600354811015610647575f806003838154811061057557610575612d6d565b905f5260205f20015481526020019081526020015f2060020160149054906101000a900460ff1680156105f357505f8080600384815481106105b9576105b9612d6d565b905f5260205f20015481526020019081526020015f2060020160159054906101000a900460ff1660028111156105f1576105f1612c39565b145b1561063f576003818154811061060b5761060b612d6d565b905f5260205f20015483838151811061062657610626612d6d565b60209081029190910101528161063b81612dc7565b9250505b600101610556565b50909392505050565b5f82815260208190526040902054156106ca576040517f08c379a000000000000000000000000000000000000000000000000000000000815260206004820152601c60248201527f44657669636520494420616c726561647920726567697374657265640000000060448201526064015b60405180910390fd5b60018054905f6106d983612dc7565b90915550506040805160a08101825283815260208101839052339181019190915260016060820152608081015f90525f838152602081815260409091208251815590820151600182019061072d9082612e4a565b506040820151600280830180546060860151151574010000000000000000000000000000000000000000027fffffffffffffffffffffff00000000000000000000000000000000000000000090911673ffffffffffffffffffffffffffffffffffffffff9094169390931792909217808355608085015192917fffffffffffffffffffff00ffffffffffffffffffffffffffffffffffffffffff9091169075010000000000000000000000000000000000000000009084908111156107f4576107f4612c39565b021790555050600380546001810182555f919091527fc2575a0e9e593c00f959f8c92f12db2869c3395a3b0502d05e2516446f71f85b01839055506040517fc0b14f0324deeddb9f66fb450d9ee5467036876b41be713835538a9792c051c29061086390849084903390612f61565b60405180910390a15050565b60605f60015467ffffffffffffffff81111561088d5761088d612833565b6040519080825280602002602001820160405280156108b6578160200160208202803683370190505b5090505f805b600354811015610647578473ffffffffffffffffffffffffffffffffffffffff165f80600384815481106108f2576108f2612d6d565b5f918252602080832090910154835282019290925260400190206002015473ffffffffffffffffffffffffffffffffffffffff1603610972576003818154811061093e5761093e612d6d565b905f5260205f20015483838151811061095957610959612d6d565b60209081029190910101528161096e81612dc7565b9250505b6001016108bc565b5f82815260046020526040902054829073ffffffffffffffffffffffffffffffffffffffff163314610a2e576040517f08c379a000000000000000000000000000000000000000000000000000000000815260206004820152602f60248201527f4f6e6c79207468652063616d706169676e206f776e65722063616e207065726660448201527f6f726d207468697320616374696f6e000000000000000000000000000000000060648201526084016106c1565b5f8381526004602052604090206002015460ff16610aa8576040517f08c379a000000000000000000000000000000000000000000000000000000000815260206004820152601660248201527f43616d706169676e206973206e6f74206163746976650000000000000000000060448201526064016106c1565b5f8381526004602052604090206003810154600110610b49576040517f08c379a000000000000000000000000000000000000000000000000000000000815260206004820152602860248201527f43616d706169676e206d7573742068617665206174206c65617374206f6e652060448201527f6c6f636174696f6e00000000000000000000000000000000000000000000000060648201526084016106c1565b5f805b6003830154811015610bfe5784836003018281548110610b6e57610b6e612d6d565b905f5260205f20015403610bf657600383018054610b8e90600190612f9f565b81548110610b9e57610b9e612d6d565b905f5260205f200154836003018281548110610bbc57610bbc612d6d565b5f9182526020909120015560038301805480610bda57610bda612fb8565b600190038181905f5260205f20015f9055905560019150610bfe565b600101610b4c565b5080610c8c576040517f08c379a000000000000000000000000000000000000000000000000000000000815260206004820152602360248201527f4c6f636174696f6e206e6f7420666f756e6420696e20746869732063616d706160448201527f69676e000000000000000000000000000000000000000000000000000000000060648201526084016106c1565b5f8481526020818152604080832060020180547fffffffffffffffffffff00ffffffffffffffffffffffffffffffffffffffffff16905560069091528120905b8154811015610d6d5786828281548110610ce857610ce8612d6d565b905f5260205f20015403610d655781548290610d0690600190612f9f565b81548110610d1657610d16612d6d565b905f5260205f200154828281548110610d3157610d31612d6d565b905f5260205f20018190555081805480610d4d57610d4d612fb8565b600190038181905f5260205f20015f90559055610d6d565b600101610ccc565b5060408051878152602081018790527f65c81cdf4e04ec3fc4855ba13260129abb6702a0b8a0eb9accd083fe19a68718910160405180910390a1505050505050565b60605f805b600354811015610e15575f8060038381548110610dd357610dd3612d6d565b905f5260205f20015481526020019081526020015f2060020160149054906101000a900460ff1615610e0d5781610e0981612dc7565b9250505b600101610db4565b505f8167ffffffffffffffff811115610e3057610e30612833565b604051908082528060200260200182016040528015610e59578160200160208202803683370190505b5090505f805b600354811015610647575f8060038381548110610e7e57610e7e612d6d565b905f5260205f20015481526020019081526020015f2060020160149054906101000a900460ff1615610ef15760038181548110610ebd57610ebd612d6d565b905f5260205f200154838381518110610ed857610ed8612d6d565b602090810291909101015281610eed81612dc7565b9250505b600101610e5f565b5f81815260046020908152604091829020600301805483518184028101840190945280845260609392830182828015610f4f57602002820191905f5260205f20905b815481526020019060010190808311610f3b575b50505050509050919050565b5f81610fe9576040517f08c379a000000000000000000000000000000000000000000000000000000000815260206004820152602660248201527f4174206c65617374206f6e65206c6f636174696f6e206d75737420626520707260448201527f6f7669646564000000000000000000000000000000000000000000000000000060648201526084016106c1565b5f5b828110156111cc575f84848381811061100657611006612d6d565b9050602002013590505f805f8381526020019081526020015f205f01541161108a576040517f08c379a000000000000000000000000000000000000000000000000000000000815260206004820152601460248201527f426f6f746820646f6573206e6f7420657869737400000000000000000000000060448201526064016106c1565b5f8181526020819052604090206002015474010000000000000000000000000000000000000000900460ff1661111c576040517f08c379a000000000000000000000000000000000000000000000000000000000815260206004820152601360248201527f426f6f7468206973206e6f74206163746976650000000000000000000000000060448201526064016106c1565b5f808281526020819052604090206002908101547501000000000000000000000000000000000000000000900460ff169081111561115c5761115c612c39565b146111c3576040517f08c379a000000000000000000000000000000000000000000000000000000000815260206004820152601660248201527f426f6f7468206973206e6f7420617661696c61626c650000000000000000000060448201526064016106c1565b50600101610feb565b5060058054905f6111dc83612dc7565b91905055505f60045f60055481526020019081526020015f20600301905060405180608001604052803373ffffffffffffffffffffffffffffffffffffffff16815260200187878080601f0160208091040260200160405190810160405280939291908181526020018383808284375f9201829052509385525050600160208085018290526040805185815280830182529581019590955260055484526004815293909220845181547fffffffffffffffffffffffff00000000000000000000000000000000000000001673ffffffffffffffffffffffffffffffffffffffff90911617815592840151918301916112d5915082612e4a565b5060408201516002820180547fffffffffffffffffffffffffffffffffffffffffffffffffffffffffffffff0016911515919091179055606082015180516113279160038401916020909101906126e0565b5050335f90815260076020908152604082206005548154600181018355918452918320015590505b8381101561144c575f85858381811061136a5761136a612d6d565b600580545f90815260046020908152604080832060030180546001808201835591855283852096840298909801359590970185905584835282825280832060020180547fffffffffffffffffffff00ffffffffffffffffffffffffffffffffffffffffff1675010000000000000000000000000000000000000000001790556006825280832084548154988901825590845292829020909601919091559054845190815290810182905283519194507f55ee21d4908f871769d5233cfea9be66a7a6a2688ddada7beb70c0d3565a1a379390829003019150a15060010161134f565b507f0b905586b6492bcce3f7d3038b8581d7c8c66649c393625fe07fb036b9321e0b6005543388886040516114849493929190612fe5565b60405180910390a15050600554949350505050565b5f82815260208190526040902060020154829073ffffffffffffffffffffffffffffffffffffffff163314806114e6575060025473ffffffffffffffffffffffffffffffffffffffff1633145b61154c576040517f08c379a000000000000000000000000000000000000000000000000000000000815260206004820152600e60248201527f4e6f7420617574686f72697a656400000000000000000000000000000000000060448201526064016106c1565b5f838152602081905260409020546115c0576040517f08c379a000000000000000000000000000000000000000000000000000000000815260206004820152601460248201527f426f6f746820646f6573206e6f7420657869737400000000000000000000000060448201526064016106c1565b5f8381526020819052604090206002908101805484927fffffffffffffffffffff00ffffffffffffffffffffffffffffffffffffffffff90911690750100000000000000000000000000000000000000000090849081111561162457611624612c39565b02179055507f9b73f8dcf28be5f9073066c6f2485d84e683fc9e1fe387bb6fec2e3b7bcef3ec838360405161165a929190613055565b60405180910390a1505050565b6006602052815f5260405f208181548110611680575f80fd5b905f5260205f20015f91509150505481565b5f82815260046020526040902054829073ffffffffffffffffffffffffffffffffffffffff163314611746576040517f08c379a000000000000000000000000000000000000000000000000000000000815260206004820152602f60248201527f4f6e6c79207468652063616d706169676e206f776e65722063616e207065726660448201527f6f726d207468697320616374696f6e000000000000000000000000000000000060648201526084016106c1565b5f828152602081905260409020546117ba576040517f08c379a000000000000000000000000000000000000000000000000000000000815260206004820152601460248201527f426f6f746820646f6573206e6f7420657869737400000000000000000000000060448201526064016106c1565b5f8281526020819052604090206002015474010000000000000000000000000000000000000000900460ff1661184c576040517f08c379a000000000000000000000000000000000000000000000000000000000815260206004820152601360248201527f426f6f7468206973206e6f74206163746976650000000000000000000000000060448201526064016106c1565b5f808381526020819052604090206002908101547501000000000000000000000000000000000000000000900460ff169081111561188c5761188c612c39565b146118f3576040517f08c379a000000000000000000000000000000000000000000000000000000000815260206004820152601660248201527f426f6f7468206973206e6f7420617661696c61626c650000000000000000000060448201526064016106c1565b5f8381526004602052604090206002015460ff1661196d576040517f08c379a000000000000000000000000000000000000000000000000000000000815260206004820152601660248201527f43616d706169676e206973206e6f74206163746976650000000000000000000060448201526064016106c1565b5f838152600460205260408120905b6003820154811015611a3c578382600301828154811061199e5761199e612d6d565b905f5260205f20015403611a34576040517f08c379a000000000000000000000000000000000000000000000000000000000815260206004820152602760248201527f4c6f636174696f6e20616c726561647920616464656420746f2074686973206360448201527f616d706169676e0000000000000000000000000000000000000000000000000060648201526084016106c1565b60010161197c565b50600381018054600180820183555f92835260208084209092018690558583528282526040808420600201805475010000000000000000000000000000000000000000007fffffffffffffffffffff00ffffffffffffffffffffffffffffffffffffffffff90911617905560068352808420805492830181558452928290200186905581518681529081018590527f55ee21d4908f871769d5233cfea9be66a7a6a2688ddada7beb70c0d3565a1a37910160405180910390a150505050565b5f81815260208190526040902060020154819073ffffffffffffffffffffffffffffffffffffffff16331480611b48575060025473ffffffffffffffffffffffffffffffffffffffff1633145b611bae576040517f08c379a000000000000000000000000000000000000000000000000000000000815260206004820152600e60248201527f4e6f7420617574686f72697a656400000000000000000000000000000000000060448201526064016106c1565b5f82815260208190526040902054611c22576040517f08c379a000000000000000000000000000000000000000000000000000000000815260206004820152601460248201527f426f6f746820646f6573206e6f7420657869737400000000000000000000000060448201526064016106c1565b5f828152602081815260409182902060020180547fffffffffffffffffffffff00ffffffffffffffffffffffffffffffffffffffff16905590518381527f454666f19214e1f72323db887cd06987420306a9800f28c3be514277dfe1f624910160405180910390a17f9b73f8dcf28be5f9073066c6f2485d84e683fc9e1fe387bb6fec2e3b7bcef3ec826002604051610863929190613055565b5f81815260208190526040902054606090819081908190611d39576040517f08c379a000000000000000000000000000000000000000000000000000000000815260206004820152601560248201527f44657669636520646f6573206e6f74206578697374000000000000000000000060448201526064016106c1565b5f85815260066020908152604080832080548251818502810185019093528083529192909190830182828015611d8c57602002820191905f5260205f20905b815481526020019060010190808311611d78575b50508351939450839250505067ffffffffffffffff811115611db057611db0612833565b604051908082528060200260200182016040528015611dd9578160200160208202803683370190505b5095508067ffffffffffffffff811115611df557611df5612833565b604051908082528060200260200182016040528015611e1e578160200160208202803683370190505b5094508067ffffffffffffffff811115611e3a57611e3a612833565b604051908082528060200260200182016040528015611e6d57816020015b6060815260200190600190039081611e585790505b5093508067ffffffffffffffff811115611e8957611e89612833565b604051908082528060200260200182016040528015611eb2578160200160208202803683370190505b5092505f5b818110156120d1575f838281518110611ed257611ed2612d6d565b6020908102919091018101515f818152600483526040808220815160808101909252805473ffffffffffffffffffffffffffffffffffffffff1682526001810180549496509294919390929184019190611f2b90612d1c565b80601f0160208091040260200160405190810160405280929190818152602001828054611f5790612d1c565b8015611fa25780601f10611f7957610100808354040283529160200191611fa2565b820191905f5260205f20905b815481529060010190602001808311611f8557829003601f168201915b5050509183525050600282015460ff161515602080830191909152600383018054604080518285028101850182528281529401939283018282801561200457602002820191905f5260205f20905b815481526020019060010190808311611ff0575b50505050508152505090508189848151811061202257612022612d6d565b602002602001018181525050805f015188848151811061204457612044612d6d565b602002602001019073ffffffffffffffffffffffffffffffffffffffff16908173ffffffffffffffffffffffffffffffffffffffff1681525050806020015187848151811061209557612095612d6d565b602002602001018190525080604001518684815181106120b7576120b7612d6d565b911515602092830291909101909101525050600101611eb7565b5050509193509193565b5f81815260208190526040902060020154819073ffffffffffffffffffffffffffffffffffffffff16331480612128575060025473ffffffffffffffffffffffffffffffffffffffff1633145b61218e576040517f08c379a000000000000000000000000000000000000000000000000000000000815260206004820152600e60248201527f4e6f7420617574686f72697a656400000000000000000000000000000000000060448201526064016106c1565b5f82815260208190526040902054612202576040517f08c379a000000000000000000000000000000000000000000000000000000000815260206004820152601460248201527f426f6f746820646f6573206e6f7420657869737400000000000000000000000060448201526064016106c1565b5f828152602081905260409081902060020180547fffffffffffffffffffffff00ffffffffffffffffffffffffffffffffffffffff1674010000000000000000000000000000000000000000179055517fc1033501e93753654cfab3a52531f6935236ea505db9ca0bc4c821adc758b8b6906108639084815260200190565b5f818152600460209081526040808320815160808101909252805473ffffffffffffffffffffffffffffffffffffffff16825260018101805460609486948694869491939092840191906122d490612d1c565b80601f016020809104026020016040519081016040528092919081815260200182805461230090612d1c565b801561234b5780601f106123225761010080835404028352916020019161234b565b820191905f5260205f20905b81548152906001019060200180831161232e57829003601f168201915b5050509183525050600282015460ff16151560208083019190915260038301805460408051828502810185018252828152940193928301828280156123ad57602002820191905f5260205f20905b815481526020019060010190808311612399575b505050919092525050815160208301516040840151606090940151919a9099509297509550909350505050565b5f60605f805f805f808881526020019081526020015f206040518060a00160405290815f820154815260200160018201805461241590612d1c565b80601f016020809104026020016040519081016040528092919081815260200182805461244190612d1c565b801561248c5780601f106124635761010080835404028352916020019161248c565b820191905f5260205f20905b81548152906001019060200180831161246f57829003601f168201915b505050918352505060028281015473ffffffffffffffffffffffffffffffffffffffff8116602084015260ff7401000000000000000000000000000000000000000082048116151560408501526060909301927501000000000000000000000000000000000000000000909104169081111561250a5761250a612c39565b600281111561251b5761251b612c39565b9052508051909150612589576040517f08c379a000000000000000000000000000000000000000000000000000000000815260206004820152601460248201527f426f6f746820646f6573206e6f7420657869737400000000000000000000000060448201526064016106c1565b8051602082015160408301516060840151608090940151929a91995097509195509350915050565b5f60208190529081526040902080546001820180549192916125d290612d1c565b80601f01602080910402602001604051908101604052809291908181526020018280546125fe90612d1c565b80156126495780601f1061262057610100808354040283529160200191612649565b820191905f5260205f20905b81548152906001019060200180831161262c57829003601f168201915b5050506002909301549192505073ffffffffffffffffffffffffffffffffffffffff81169060ff740100000000000000000000000000000000000000008204811691750100000000000000000000000000000000000000000090041685565b600381815481106126b7575f80fd5b5f91825260209091200154905081565b6007602052815f5260405f208181548110611680575f80fd5b828054828255905f5260205f20908101928215612719579160200282015b828111156127195782518255916020019190600101906126fe565b50612725929150612729565b5090565b5b80821115612725575f815560010161272a565b5f6020828403121561274d575f80fd5b5035919050565b5f81518084528060208401602086015e5f6020828601015260207fffffffffffffffffffffffffffffffffffffffffffffffffffffffffffffffe0601f83011685010191505092915050565b73ffffffffffffffffffffffffffffffffffffffff84168152606060208201525f6127ce6060830185612754565b90508215156040830152949350505050565b5f8151808452602084019350602083015f5b828110156128105781518652602095860195909101906001016127f2565b5093949350505050565b602081525f61282c60208301846127e0565b9392505050565b7f4e487b71000000000000000000000000000000000000000000000000000000005f52604160045260245ffd5b5f8060408385031215612871575f80fd5b82359150602083013567ffffffffffffffff81111561288e575f80fd5b8301601f8101851361289e575f80fd5b803567ffffffffffffffff8111156128b8576128b8612833565b6040517fffffffffffffffffffffffffffffffffffffffffffffffffffffffffffffffe0603f7fffffffffffffffffffffffffffffffffffffffffffffffffffffffffffffffe0601f8501160116810181811067ffffffffffffffff8211171561292457612924612833565b60405281815282820160200187101561293b575f80fd5b816020840160208301375f602083830101528093505050509250929050565b803573ffffffffffffffffffffffffffffffffffffffff8116811461297d575f80fd5b919050565b5f60208284031215612992575f80fd5b61282c8261295a565b5f80604083850312156129ac575f80fd5b50508035926020909101359150565b5f805f80604085870312156129ce575f80fd5b843567ffffffffffffffff8111156129e4575f80fd5b8501601f810187136129f4575f80fd5b803567ffffffffffffffff811115612a0a575f80fd5b876020828401011115612a1b575f80fd5b60209182019550935085013567ffffffffffffffff811115612a3b575f80fd5b8501601f81018713612a4b575f80fd5b803567ffffffffffffffff811115612a61575f80fd5b8760208260051b8401011115612a75575f80fd5b949793965060200194505050565b5f8060408385031215612a94575f80fd5b82359150602083013560038110612aa9575f80fd5b809150509250929050565b5f8151808452602084019350602083015f5b828110156128105781511515865260209586019590910190600101612ac6565b608081525f612af860808301876127e0565b82810360208401528086518083526020830191506020880192505f5b81811015612b4857835173ffffffffffffffffffffffffffffffffffffffff16835260209384019390920191600101612b14565b505083810360408501528091505f865180835260208301935060208160051b840101602089015f5b83811015612bc0577fffffffffffffffffffffffffffffffffffffffffffffffffffffffffffffffe0868403018752612baa838351612754565b6020978801979093509190910190600101612b70565b50508092508681036060880152612bd78189612ab4565b9b9a5050505050505050505050565b73ffffffffffffffffffffffffffffffffffffffff85168152608060208201525f612c146080830186612754565b84151560408401528281036060840152612c2e81856127e0565b979650505050505050565b7f4e487b71000000000000000000000000000000000000000000000000000000005f52602160045260245ffd5b60038110612c9b577f4e487b71000000000000000000000000000000000000000000000000000000005f52602160045260245ffd5b9052565b85815260a060208201525f612cb760a0830187612754565b905073ffffffffffffffffffffffffffffffffffffffff851660408301528315156060830152612cea6080830184612c66565b9695505050505050565b5f8060408385031215612d05575f80fd5b612d0e8361295a565b946020939093013593505050565b600181811c90821680612d3057607f821691505b602082108103612d67577f4e487b71000000000000000000000000000000000000000000000000000000005f52602260045260245ffd5b50919050565b7f4e487b71000000000000000000000000000000000000000000000000000000005f52603260045260245ffd5b7f4e487b71000000000000000000000000000000000000000000000000000000005f52601160045260245ffd5b5f7fffffffffffffffffffffffffffffffffffffffffffffffffffffffffffffffff8203612df757612df7612d9a565b5060010190565b601f821115612e4557805f5260205f20601f840160051c81016020851015612e235750805b601f840160051c820191505b81811015612e42575f8155600101612e2f565b50505b505050565b815167ffffffffffffffff811115612e6457612e64612833565b612e7881612e728454612d1c565b84612dfe565b6020601f821160018114612ec9575f8315612e935750848201515b7fffffffffffffffffffffffffffffffffffffffffffffffffffffffffffffffff600385901b1c1916600184901b178455612e42565b5f848152602081207fffffffffffffffffffffffffffffffffffffffffffffffffffffffffffffffe08516915b82811015612f165787850151825560209485019460019092019101612ef6565b5084821015612f5257868401517fffffffffffffffffffffffffffffffffffffffffffffffffffffffffffffffff600387901b60f8161c191681555b50505050600190811b01905550565b838152606060208201525f612f796060830185612754565b905073ffffffffffffffffffffffffffffffffffffffff83166040830152949350505050565b81810381811115612fb257612fb2612d9a565b92915050565b7f4e487b71000000000000000000000000000000000000000000000000000000005f52603160045260245ffd5b84815273ffffffffffffffffffffffffffffffffffffffff8416602082015260606040820152816060820152818360808301375f818301608090810191909152601f9092017fffffffffffffffffffffffffffffffffffffffffffffffffffffffffffffffe01601019392505050565b8281526040810161282c6020830184612c6656fea2646970667358221220440792b2398d6ffe969c65195425ed867a068a8e6c3d91a3f46ec6338f194c6064736f6c634300081a0033","linkReferences":{}},"methodIdentifiers":{"activateBooth(uint256)":"ced3530f","addLocationToCampaign(uint256,uint256)":"adb6f8be","admin()":"f851a440","advertiserToCampaigns(address,uint256)":"fa26abdf","allDeviceIds(uint256)":"f3d4c0a8","boothCount()":"94909c55","booths(uint256)":"f314ea78","campaignCount()":"7274e30d","campaigns(uint256)":"141961bc","createCampaign(bytes,uint256[])":"7429dbef","deactivateBooth(uint256)":"c1677fe7","deviceToCampaigns(uint256,uint256)":"87d62e59","getActiveBooths()":"36fbb976","getActiveLocations()":"1cd249b6","getBoothDetails(uint256)":"e6f18690","getCampaignDetails(uint256)":"d993de62","getCampaignLocations(uint256)":"4884a15b","getDevicePreviousCampaigns(uint256)":"c941aa11","getProviderLocations(address)":"2c7ec382","registerBooth(uint256,bytes)":"2b128b2f","removeLocationFromCampaign(uint256,uint256)":"2e6dc91a","updateBoothStatus(uint256,uint8)":"7e41461e"},"id":15}