{"abi":[{"type":"constructor","inputs":[],"stateMutability":"nonpayable"},{"type":"function","name":"admin","inputs":[],"outputs":[{"name":"","type":"address","internalType":"address"}],"stateMutability":"view"},{"type":"function","name":"getAggregatedMetrics","inputs":[{"name":"_boothId","type":"uint256","internalType":"uint256"},{"name":"_startTime","type":"uint256","internalType":"uint256"},{"name":"_endTime","type":"uint256","internalType":"uint256"}],"outputs":[{"name":"totalViews","type":"uint256","internalType":"uint256"},{"name":"totalTaps","type":"uint256","internalType":"uint256"}],"stateMutability":"view"},{"type":"function","name":"getMetrics","inputs":[{"name":"_deviceId","type":"uint256","internalType":"uint256"},{"name":"_timestamp","type":"uint256","internalType":"uint256"}],"outputs":[{"name":"views","type":"uint256","internalType":"uint256"},{"name":"taps","type":"uint256","internalType":"uint256"}],"stateMutability":"view"},{"type":"function","name":"metrics","inputs":[{"name":"","type":"uint256","internalType":"uint256"},{"name":"","type":"uint256","internalType":"uint256"}],"outputs":[{"name":"views","type":"uint256","internalType":"uint256"},{"name":"taps","type":"uint256","internalType":"uint256"}],"stateMutability":"view"},{"type":"function","name":"updateMetrics","inputs":[{"name":"_deviceId","type":"uint256","internalType":"uint256"},{"name":"_timestamp","type":"uint256","internalType":"uint256"},{"name":"_views","type":"uint256","internalType":"uint256"},{"name":"_taps","type":"uint256","internalType":"uint256"}],"outputs":[],"stateMutability":"nonpayable"},{"type":"event","name":"MetricsUpdated","inputs":[{"name":"deviceId","type":"uint256","indexed":false,"internalType":"uint256"},{"name":"timestamp","type":"uint256","indexed":false,"internalType":"uint256"},{"name":"views","type":"uint256","indexed":false,"internalType":"uint256"},{"name":"taps","type":"uint256","indexed":false,"internalType":"uint256"}],"anonymous":false}],"bytecode":{"object":"0x6080604052348015600e575f80fd5b50600180546001600160a01b0319163317905561042d8061002e5f395ff3fe608060405234801561000f575f80fd5b5060043610610064575f3560e01c8063aa65877e1161004d578063aa65877e146100d9578063e7f8b5ef14610107578063f851a4401461011c575f80fd5b806371b44bb814610068578063848f34aa14610095575b5f80fd5b61007b610076366004610302565b610161565b604080519283526020830191909152015b60405180910390f35b61007b6100a336600461032b565b5f918252602082815260408084209284529181529181902081518083019092528054808352600190910154919092018190529091565b61007b6100e736600461032b565b5f6020818152928152604080822090935290815220805460019091015482565b61011a61011536600461034b565b6101d8565b005b60015461013c9073ffffffffffffffffffffffffffffffffffffffff1681565b60405173ffffffffffffffffffffffffffffffffffffffff909116815260200161008c565b5f80835b8381116101cf575f8681526020818152604080832084845282529182902082518084019093528054808452600190910154918301919091526101a790856103a7565b93508060200151836101b991906103a7565b92505080806101c7906103c0565b915050610165565b50935093915050565b60015473ffffffffffffffffffffffffffffffffffffffff163314610283576040517f08c379a000000000000000000000000000000000000000000000000000000000815260206004820152602160248201527f4f6e6c792061646d696e2063616e2063616c6c20746869732066756e6374696f60448201527f6e00000000000000000000000000000000000000000000000000000000000000606482015260840160405180910390fd5b60408051808201825283815260208082018481525f888152808352848120888252835284902092518355516001909201919091558151868152908101859052908101839052606081018290527f56d8f7dc7f4e1d9960c9a876b8fe805810b535361b52ba0e6c1b6b6529f2bcc89060800160405180910390a150505050565b5f805f60608486031215610314575f80fd5b505081359360208301359350604090920135919050565b5f806040838503121561033c575f80fd5b50508035926020909101359150565b5f805f806080858703121561035e575f80fd5b5050823594602084013594506040840135936060013592509050565b7f4e487b71000000000000000000000000000000000000000000000000000000005f52601160045260245ffd5b808201808211156103ba576103ba61037a565b92915050565b5f7fffffffffffffffffffffffffffffffffffffffffffffffffffffffffffffffff82036103f0576103f061037a565b506001019056fea2646970667358221220e67702be65a25cab2386f32ce8a48f056b8f9fcdded8641bee34a3401687eff564736f6c634300081a0033","linkReferences":{}},"methodIdentifiers":{"admin()":"f851a440","getAggregatedMetrics(uint256,uint256,uint256)":"71b44bb8","getMetrics(uint256,uint256)":"848f34aa","metrics(uint256,uint256)":"aa65877e","updateMetrics(uint256,uint256,uint256,uint256)":"e7f8b5ef"},"id":21}